:020000040800F2
:10000000D0040020010100087B180008E517000853
:100010007918000885030008ED1B000800000000A7
:100020000000000000000000000000007F18000831
:1000300087030008000000007D18000881180008F0
:100040001B0100081B0100081B0100081B01000820
:100050001B0100081B0100081B0100081B01000810
:100060001B0100081B0100081B0100081B01000800
:100070001B0100081B0100081B0100081B010008F0
:100080001B0100081B010008BD0200081B0100083D
:100090001B0100081B0100081B0100081B010008D0
:1000A0001B0100081B0100081B0100081B010008C0
:1000B000211900081B0100081B0100081B01000892
:1000C0001B0100081B0100081B0100081B010008A0
:1000D0001B010008E11B00081B0100081B010008B0
:1000E0001B0100081B0100081B010008DFF80CD0F1
:1000F00000F070F800480047391C0008D0040020C8
:100100000648804706480047FEE7FEE7FEE7FEE7B1
:10011000FEE7FEE7FEE7FEE7FEE7FEE7D918000888
:10012000ED000008D2B201E000F8012B491EFBD21D
:1001300070470022F6E710B513460A4604461946F2
:10014000FFF7F0FF204610BD70B5064601F060FDD8
:10015000046805460A220021304600F002F82C60AF
:1001600070BD2DE9F04791460F46804604460026B3
:1001700014F8015B2DB100F03FF80068405DC00746
:10018000F6D12B2D02D02D2D18D0641E4A463946AB
:10019000204600F035F827B13968A14201D1C7F8EF
:1001A000008071054FF002040BD54042002803DDAA
:1001B00001F02EFD0460A007BDE8F08746F48066DC
:1001C000E4E70028F8DA01F023FD04606FF0004056
:1001D000F2E70000064C074D06E0E06840F001033E
:1001E00094E8070098471034AC42F6D3FFF782FF3B
:1001F000881D0008A81D000800487047841D0008DD
:100200002DE9F05F82460078002715468B460AF1FB
:100210000104B946302801D09DB113E014F8010B58
:100220000127782803D0582801D045B10AE00DB144
:10023000102D07D10027102514F8010B02E0082526
:1002400000E00A250026B0460EE005FB080005FB8D
:1002500006F1012701EB10461FFA80F8B6F5803F42
:1002600000D3B94614F8010B294600F018F800280D
:10027000EBDABBF1000F05D00FB1641E00E054466D
:10028000CBF80040B9F1000F06D001F0C1FC02210B
:100290000160C81EBDE8F09F48EA0640FAE73A2828
:1002A00000D2303820F02002412A01D3A2F13700D9
:1002B000884201D34FF0FF3070470000014800F042
:1002C000F8B800002000002070B50446006881687E
:1002D000C943C9071CD1816821F00101816000F088
:1002E000D3FB05460FE000BF00F0CEFB401B022809
:1002F00009D9A06A40F01000A062E06A40F0010055
:10030000E062012070BD20688068C043C007EBD068
:10031000002070BDF8B5002604460096006881688C
:10032000C943C90728D0816841F0010181601348A1
:1003300013490068B0FBF1F000E0401E0090002877
:10034000FBD100F0A1FB054611E000BF00F09CFBD3
:10035000401B02280BD9A06A40F01000A062E06A9E
:1003600040F00100E06284F824600120F8BD2068BC
:100370008068C043C007E9D10020F8BD1800002004
:1003800040420F00FEE7704770470000F8B50024B8
:10039000009490F824202546012A12D0012280F8EA
:1003A00024204A681F23072A0DD20668776B521E45
:1003B00002EB820293409F430B6893401F43776395
:1003C00019E00220F8BD06680D2A0AD2376BD21F49
:1003D00002EB820293409F430B6893401F433763B5
:1003E00009E0F76A0D3A02EB820293409F430B68E3
:1003F00093401F43F7620A68072306680A2A0AD354
:10040000F7680A3A02EB420293409F438B6893409D
:100410001F43F76008E0376902EB420293409F43B5
:100420008B6893401F4337610A68102A01D0112A54
:1004300020D1124B02689A4217D193681B0219D43B
:10044000936843F4000393600968102912D10C49A2
:100450000C4A0968B1FBF2F101EB8101490000E0AF
:10046000491E00910029FBD104E0816A41F020017E
:100470008162012480F824502046F8BD0024014008
:100480001800002040420F0010B5064800F00EF89A
:100490000549022288800348091DBDE810407030DC
:1004A00001F080B920000020000000200068C06C2E
:1004B000704710B5044600684168890626D5016872
:1004C000890723D5A16AC90603D4A16A41F4007142
:1004D000A1628168C1F34241072910D1217B71B922
:1004E000416821F020014160A06A20F48070A06280
:1004F000A06AC00403D4A06A40F00100A0622046B4
:10050000FFF7C2FF21686FF01200086020684168A1
:1005100009062ED5016849072BD5A16AC90603D45F
:10052000A16A41F40051A1628168C1F30231072937
:1005300009D04168490515D48168C1F342410729B2
:1005400010D1217B71B9416821F080014160A06A1E
:1005500020F48050A062A06AC00503D4A06A40F0D5
:100560000100A0622046FFF70FFF21686FF00C002A
:1005700008602068416849060DD50068C0070AD0A8
:10058000A06A40F48030A062204600F093F8216811
:100590006FF00100086010BD2DE9F0414FF0000739
:1005A00004003D467ED0A06A002628B9E66284F8A1
:1005B0002460204600F080F82046FFF785FEA16AFF
:1005C000C90600D420B1A06A40F01000A06269E022
:1005D000A16A21F4885141F00201A1626268E169D7
:1005E000237B0A4347EA43010A43A1684FF480771B
:1005F000B94209D0012907D05FF0000194F814C076
:10060000BCF1010F02D00AE03946F7E7F3B1A36A63
:1006100043F02003A362E36A43F00103E36223682B
:10062000D3F804C02CF4694C4CEA010CC3F804C0A4
:1006300021688B68DFF870C003EA0C0313438B60FA
:10064000A168B9420BD0012909D00CE0DFF85CC0E9
:10065000A3690CEB43330B4343F40061DFE7218ACA
:100660000D05A5F580152168CB6A23F470032B4393
:10067000CB62216889680E4B1940914208D1E6622D
:10068000A16A21F0020141F00101A162BDE8F081FF
:10069000A06A20F0020040F01000A062E06A40F082
:1006A0000100E0620120F1E7FDF7E1FF00E0FFFF5C
:1006B000FE0E1FFF7047000000B585B000210091BD
:1006C00001910291039100681249884220D1124899
:1006D000816941F400718161816901F400710491C3
:1006E000816941F0040181618069694600F004007C
:1006F00004900120009003200190084800F0D4F8F5
:1007000000221146122000F02BFA122000F01AFAF3
:1007100005B000BD00240140001002400008014067
:1007200070B5044690F8240001280DD0012084F80B
:1007300024002046FFF7EEFD02004FF0000005D038
:1007400084F82400104670BD022070BDA16A40F6F6
:100750000163994341F48071A162224D23682249CB
:10076000AB4218D10E6816F4702F14D0A66A46F466
:100770008016A6620E68760505D5A66A26F4005690
:1007800046F48056A662A66AF6040AD5E66A26F002
:100790000606E66206E0A66A26F48016A6625E6891
:1007A000E9E7E06284F824006FF002001860206836
:1007B000436843F02003436020688368C3F34243E7
:1007C000072B05D1A84208D1096811F4702F04D075
:1007D000816841F480118160B4E7816841F4A0012F
:1007E000F9E70000002801400424014010B590F80A
:1007F00021100024022903D00421816301243DE05B
:1008000001680A6822F00E020A6001680A6822F094
:1008100001020A601A4A0168914201D1012121E0D6
:10082000174A1432914201D110211BE0144A283298
:10083000914201D1891515E0114A3C32914201D112
:1008400089140FE00E4A5032914202D14FF48031A8
:1008500008E00B4A6432914202D14FF4801101E06A
:100860004FF08071064A083A5160012180F821104A
:10087000002180F82010416B01B18847204610BD4F
:100880000800024070B5044600F0FEF80546601C02
:1008900002D004480078044400F0F6F8401BA0425F
:1008A000FAD370BD0C0000202DE9F84FDFF8B891A5
:1008B000002409F1040A0AF1040B23460F270BF167
:1008C000040EC9E00125A5402A40AA427DD1674E09
:1008D000D1F804C0ACEB0608B44532D014DCBCF14E
:1008E000030F3AD009DCBCF1000F2AD0BCF1010F94
:1008F0001CD0BCF1020F31D11DE0BCF1110F17D09B
:10090000BCF1120F2AD119E0B8F5881F19D006DC06
:10091000B8F5803F15D0B8F5801F1FD111E0B8F5AC
:10092000001F0ED0B8F5041F18D10AE0CB6815E0FF
:10093000CB681B1D12E0CB6808330FE0CB680C338B
:100940000CE08B682BB1012B4FF0080303D04561FD
:1009500004E0042302E0056100E00023FF2A01D83F
:10096000064601E000F104064FEA840501D9A5F12D
:100970002005D6F8008007FA05FC28EA0C0803FADF
:1009800005F548EA0508C6F800804D68ED0062D517
:10099000374DAE6946F00106AE61AD6924F003063D
:1009A00005F001050095334D06EB050CDCF8085009
:1009B000A607360F07FA06F825EA0805DFF8B8801B
:1009C000404503D14FF0000817E044E0DFF8AC8069
:1009D000404502D14FF001080FE0DFF8A480404508
:1009E00002D14FF0020808E0DFF89880404502D1BC
:1009F0004FF0030801E04FF0040808FA06F848EA4F
:100A00000508CCF808804D68D9F80060ED034D4624
:100A100001D5164300E096432E604D68DAF8006079
:100A2000AD03554601D5164300E096432E604D6850
:100A3000DBF80060ED025D4601D5164300E0964309
:100A40002E604D68DEF80060AD02754601D5164394
:100A500000E096432E60641C0D682A46E5407FF452
:100A600031AFBDE8F88F0000000401400000111014
:100A7000001002400000014000080140000C01404D
:100A800000100140001401400148806870470000D8
:100A90000C00002002488168027811448160704790
:100AA0000C000020074810B5016841F010010160FA
:100AB000032000F075F8002000F006F800F024F89C
:100AC000002010BD0020024070B50D4D04464FF4CB
:100AD0007A712878B1FBF0F00A490968B1FBF0F0AF
:100AE00000F062FB48B9102C07D200222146501EAC
:100AF00000F036F800206C6070BD012070BD000071
:100B00000C000020180000200C4808B5816941F055
:100B100001018161816901F001010091C16941F028
:100B20008051C161C06900F0805000900448416864
:100B300021F0E06141F08061416008BD0010024099
:100B400000000140002809DB00F01F020121914054
:100B50004009800000F1E020C0F80011704700005B
:100B6000F0B40E4B1B680C46C3F30223C3F1070518
:100B7000042D00D90425191D072901D2002300E006
:100B8000DB1E012606FA05F1491E214099409E40D0
:100B9000761E16403143F0BC01F029B80CED00E0A0
:100BA000064900F0070208684FF6FF03184040EAC4
:100BB0000220034A10430860704700000CED00E07B
:100BC0000000FA052DE9F84305460078354CC007CA
:100BD00054D0E0690026C00008D4E06940F080509D
:100BE000E061E069012600F0805000902E48016825
:100BF000C90512D40168804641F480710160FFF795
:100C000043FF074605E000BFFFF73EFFC01B642817
:100C100023D8D8F80000C005F6D5206A10F440703B
:100C200021D0A98801F4407181421CD0206A1F495B
:100C3000012220F440700A6000220A602062C0078E
:100C400011D0FFF721FF074641F2883808E000BFC6
:100C5000FFF71AFFC11B414502D90320BDE8F88305
:100C6000206A8007F4D5206A696820F44070084340
:100C700020621EB1E06920F08050E0612878800792
:100C800005D56068A96820F4404008436060287872
:100C9000C00605D56068E96820F4800008436060FC
:100CA0000020DBE700100240007000404004424298
:100CB0002DE9F0470F46050061D0434E306800F043
:100CC0000700B84209D2306820F00700384330608E
:100CD000306800F00700B84251D128683B4C8107CA
:100CE00012D5400703D5606840F4E0606060287862
:100CF000000703D5606840F4605060606068A968D0
:100D000020F0F000084360602878C00728D06868A9
:100D1000012810D02168022810D0890700292EDA76
:100D2000616821F0030101436160FFF7ADFE804679
:100D300041F288390DE021688903EFE78901EDE789
:100D4000FFF7A2FEA0EB0801494502D90320BDE848
:100D5000F0876068696800F00C00B0EB810FEFD19C
:100D6000306800F00700B8420BD9306820F0070067
:100D700038433060306800F00700B84201D00120ED
:100D8000E5E72878400705D56068E96820F4E06069
:100D9000084360602878000706D56068296920F458
:100DA000605040EAC100606000F038F86168084AAD
:100DB000C1F30311515CC840064908600648006849
:100DC000FFF782FE0020C2E7002002400010024030
:100DD000E81C000818000020100000200448054905
:100DE00000684968044AC1F30221515CC840704759
:100DF0001800002000100240F81C000804480549B3
:100E000000684968044AC1F3C221515CC840704778
:100E10001800002000100240F81C000812A185B044
:100E20000FC98DE80F0014A0144A0068049051689F
:100E3000134801F00C03042B10D0082B0ED1C1F382
:100E40008343C9031DF803000AD5516804AAC1F3FE
:100E50004041515C0A4A5043B0FBF1F005B0704785
:100E600008494843FAE70000020304050607080999
:100E70000A0B0C0D0E0F10100102000000100240B2
:100E800000127A0000093D002DE9F84F040070D0EF
:100E90002078C04DC00749D06868C0F381000128A0
:100EA00007D06868C0F38100022809D16868C003D0
:100EB00006D52868800339D560680028E7D035E07A
:100EC0006068B0F5803F0BD010B1B0F5A02F11D005
:100ED000286820F480302860286820F4802002E010
:100EE000286840F480302860606890B1FFF7CCFD3E
:100EF00006460AE0286840F480202860F0E700BF3A
:100F0000FFF7C2FD801B642873D828688003F7D5DB
:100F10000CE0FFF7B9FD064605E000BFFFF7B4FDA2
:100F2000801B6428F0D828688003F7D420789A4E74
:100F300080074FF001094FF0000839D5686810F0BC
:100F40000C0F07D06868C0F38100022809D16868D7
:100F5000C00306D42868800714D52069012808D169
:100F600010E02069B0B1C6F80090FFF78DFD07468C
:100F700005E00AE1FFF788FDC01B0228C4D82868F5
:100F80008007F7D52868616920F0F80040EAC100C1
:100F900028600DE0C6F80080FFF776FD074604E004
:100FA000FFF772FDC01B022823D828688007F7D4FA
:100FB000207800072CD57948A169D9B1C0F80090F4
:100FC000FFF762FD074604E0FFF75EFDC01B022845
:100FD0000FD8686A8007F7D571484FF4FA51006856
:100FE000B0FBF1F0009000BF0098411E0091FAD2D2
:100FF0000EE080E0C0F80080FFF746FD074604E001
:10100000FFF742FDC01B022875D8686A8007F7D435
:101010002078400760D5E8690027C00008D4E86957
:1010200040F08050E861E869012700F080500090AE
:101030005C480168C90513D40168834641F4807196
:101040000160FFF721FD824606E000BFFFF71CFDAF
:10105000A0EB0A0064284ED8DBF80000C005F5D5E7
:10106000E06801280AD008B1052813D0286A20F0CA
:1010700001002862286A20F0040002E0286A40F09B
:1010800001002862E06841F2883B98B1FFF7FCFC60
:1010900082460BE0286A40F004002862EEE700BFB9
:1010A000FFF7F2FCA0EB0A0159455AD8286A8007DD
:1010B000F6D50CE0FFF7E8FC824605E0FFF7E4FC1C
:1010C000A0EB0A0159454CD8286A8007F6D41FB115
:1010D000E86920F08050E861E06988B36968C1F38D
:1010E0008101022944D00228C6F8608004D0FFF7AD
:1010F000CBFC044638E034E0FFF7C6FC074604E0CA
:10110000FFF7C2FCC01B02282BD828688001F7D447
:10111000206AB0F5803F05D16868A16820F40030EE
:1011200008436860D4E908010843696821F4741130
:1011300008436860C6F86090FFF7A6FC044606E026
:1011400025E000BFFFF7A0FC001B022809D8286893
:101150008001F7D51BE000BFFFF796FC001B0228BB
:1011600002D90320BDE8F88F28688001F4D40EE08E
:101170000128F7D06868226A00F48031914204D1D6
:10118000616A00F47010884201D00120EAE7002073
:10119000E8E70000001002400000424280044242A2
:1011A000180000200070004010B5401EB0F1807F94
:1011B00001D3012010BD4FF0E02460610F216017C2
:1011C00000F015FD0020A06107202061002010BD67
:1011D0007047704770B590F83C20012A19D001245F
:1011E00000F83C4F0222427050F83C3C5A689D681F
:1011F00022F070060A684968324325F080052943C9
:101200005A6050F83C2C91604470002101700846EF
:1012100070BD022070BD10B5040003D094F83D00ED
:1012200010B107E0012010BD002084F83C002046EA
:1012300000F00CF8022084F83D00211D206800F029
:1012400075FB012084F83D00002010BD08B5006842
:10125000B0F1804F12D10A48C16941F00101C1616A
:10126000C069002200F00100009011461C20FFF729
:1012700077FCBDE808401C20FFF764BC08BD0000F7
:10128000001002400168CA6842F00102CA600068AA
:10129000816801F00701062903D0016841F00101CE
:1012A0000160002070470168CA6822F00102CA602C
:1012B0000068016A41F21112114207D1016A9210CD
:1012C000114203D1016821F0010101600020704743
:1012D00070B5044690F83C00012817D0012584F829
:1012E0003C50022084F83D002068826822F077029A
:1012F00022F47F4282600868502830D00DDC20281C
:101300004DD005DC98B310283BD148E0022070BDD9
:10131000302844D0402834D139E0602828D07028C3
:1013200006D0B0F5805F2CD0B0F5005F29D10AE07F
:10133000CB68D1E90121206800F02EFB206881688C
:1013400041F0770109E0CB68D1E90121206800F084
:1013500023FB2068816841F48041816011E0CA6804
:101360004968206800F02AFB5021206807E016E059
:10137000CA684968206800F032FB6021206800F0EC
:1013800015FB84F83D50002084F83C0070BDCA680D
:101390004968206800F012FB40212068EFE72268CE
:1013A00001461046EBE7704770B5044600680169D6
:1013B0004FF00005C943890715D4C168C94389079F
:1013C00011D4E91E0161012020772068806980071F
:1013D000204602D0FFF7E7FF04E000F098F820462F
:1013E00000F096F8257720680169C943490717D4AA
:1013F000C168C943490713D46FF004010161022099
:1014000020772068806910F4407F204602D0FFF7E3
:10141000CAFF04E000F07BF8204600F079F8257759
:1014200020680169C943090716D4C168C94309077F
:1014300012D46FF008010161042020772068C06990
:101440008007204602D0FFF7AEFF04E000F05FF80F
:10145000204600F05DF8257720680169C943C90678
:1014600017D4C168C943C90613D46FF010010161D4
:10147000082020772068C06910F4407F204602D001
:10148000FFF791FF04E000F042F8204600F040F83A
:10149000257720680169C943C90708D1C168C943D4
:1014A000C90704D1891E0161204600F033F8206885
:1014B0000169C943090609D4C168C943090605D4AD
:1014C0006FF0800101612046FFF782FE206801690C
:1014D000C943490609D4C168C943490605D46FF018
:1014E00040010161204600F01BF820680169C943F2
:1014F00089060BD4C168C943890607D46FF020015F
:1015000001612046BDE87040FFF763BE70BD7047C3
:10151000704700000148FFF703B9000020000020D9
:101520007047704770B5026804461068D168536907
:1015300010F00F0F50D003F0010501F49076354301
:101540005DD0C20705D0CA0503D5E26B42F00102A7
:10155000E263420705D5DA0703D0E26B42F00202EC
:10156000E263820705D5DA0703D0E26B42F004029A
:10157000E263020705D5DA0703D0E26B42F0080206
:10158000E263E26B002A33D0800604D5880602D5D8
:10159000204600F04CFA20684069E16BC0F38010EF
:1015A000090700D428B3204600F033FA20684169C7
:1015B00049061AD5416921F040014161606BA0B133
:1015C0001B494163606BFFF711F9002810D0606B75
:1015D000416BBDE870400847830610D58B060ED5D9
:1015E0002046BDE8704000F022BA2046FFF799FF80
:1015F00070BD2046FFF795FF0020E06370BD030635
:1016000006D50B0604D52046BDE8704000F0B6BAFA
:101610004006F3D54806F1D5D168204621F04001B7
:10162000D160202184F8391000F0DBF870BD000093
:10163000031A000870B5040004D094F8390000259E
:1016400010B106E0012070BD84F83850204600F04B
:1016500023F8242084F839002068C16821F400515F
:10166000C160204600F02EFA2068016921F4904103
:1016700001612068416921F02A0141612068C16847
:1016800041F40051C160E563202084F8390084F8FA
:101690003A00002070BD000030B585B000240094F1
:1016A0000194029403940068184988422CD1184888
:1016B000816941F480418161816901F48041049133
:1016C000816941F0040181618069124D00F00400DC
:1016D00004904FF4007000900220019003200390CA
:1016E00069462846FFF7E0F82815CDE90004694669
:1016F00028460294FFF7D8F8002211462520FFF76C
:101700002FFA2520FFF71EFA05B030BD0038014042
:10171000001002400008014090F83A30202B22D1FE
:10172000F9B1F2B190F83830012B1CD0816282857A
:10173000C2850021C163222280F83A2080F8381047
:101740000168CA6842F48072CA6001684A6942F05E
:1017500001024A610068C16841F02001C1600020B7
:1017600070470120704702207047000010B50B48F9
:10177000FEF7EAFC094B5B1E58B100EBC00101EB20
:1017800000109860BDE81040012204490448FFF7AA
:10179000C3BF00F097FA01201870F3E701000020A2
:1017A0009000002090F83930202B18D1A9B1A2B1B7
:1017B00090F83830012B12D001628284C28400215B
:1017C000C163212280F8392080F838100068C16890
:1017D00041F08001C1600020704701207047022065
:1017E00070477047FEE700003EB500240D480094A6
:1017F000019402940A498460016004730475012510
:1018000005614FF460214460C161FEF7C5FECDE97A
:101810000045694603480294FEF7B8FD3EBD00004E
:10182000002401402000002010B586B0002411489B
:10183000009401940294039404944FF08041059421
:10184000016040F21F31C0E90114C4600461846189
:10185000FFF7E1FC4FF48050009069460548FFF720
:1018600037FD049404A903480594FFF7B3FC06B0C0
:1018700010BD000050000020FEE770477047704721
:10188000FFF708B930B593B028216846FEF751FC40
:1018900014210AA8FEF74DFC002401200F94022514
:1018A00004900095102011940590109412940794C0
:1018B0006846FFF7E9FA0F20CDE90A040C940D946D
:1018C00000210AA80E94FFF7F3F90FA80F951194C1
:1018D000FFF778F913B030BD0D48016841F0010100
:1018E000016041680B4A1140416001680A4A114099
:1018F0000160016821F480210160416821F4FE014A
:1019000041604FF41F0181600449C00308607047C3
:10191000001002400000FFF8FFFFF6FE08ED00E0B7
:101920000148FFF741BD000050000020F0B50268FB
:10193000164B174C174D4FF08047984205D0B842D0
:1019400003D0A04201D0A84203D122F070064A6819
:101950003243984205D0B84203D0A04201D0A842F9
:1019600003D122F44074CA6822434C6922F08002F9
:10197000224302608A68C2620A688262984201D188
:101980000969016301214161F0BD0000002C0140A3
:10199000000400400008004010B5846842EA0322B9
:1019A00024F47F440A432243826010BD826822F0FF
:1019B00070020A4342F007018160704710B5036A64
:1019C000046A24F001040462846924F0F00444EA07
:1019D000021423F00A020A438461026210BD10B5AA
:1019E000036A23F0100303628369046A23F47043DB
:1019F00043EA023224F0A00343EA0111826101624A
:101A000010BD10B5406A0021C185C184FFF789FD72
:101A100010BD0168CA6822F49072CA6001684A6900
:101A200022F001024A61202180F83A10704710B577
:101A300090F83A10222901D0022010BD8168B1F53A
:101A4000805F11D00169002901681FD0496801F049
:101A50007F03816A4A1C82620B70C18D491E090492
:101A6000090CC18518D02BE00269816A002A02683E
:101A7000526805D0D2B20A80816A491C8162ECE7C3
:101A8000C2F308020A80816A891CF7E74A68816A02
:101A90004B1C83620A70E0E70168CA6822F02002EA
:101AA000CA600168CA6822F48072CA6001684A6923
:101AB00022F001024A61202180F83A10FFF756FE19
:101AC000002010BD2DE9F041044600680169E2687C
:101AD00021F44051114301612169A0680843616903
:101AE00008432168CA6841F20C639A430243CA6002
:101AF00020684169A26921F44071114341611E4986
:101B0000206864253226884202D1FFF777F901E088
:101B1000FFF764F900EBC00101EB001160686FF0A2
:101B200018078000B1FBF0F2B2FBF5F2B1FBF0F365
:101B30007A4303EB8202B1FBF0F306EB0212B2FB35
:101B4000F5F2B3FBF5F302F0F00202EB0312B1FB86
:101B5000F0F3B1FBF0F0B0FBF5F0784303EB80005D
:101B600006EB0010B0FBF5F0216800F00F00104408
:101B70008860BDE8F08100000038014090F839101D
:101B8000212901D0022070478168B1F5805F016A88
:101B90000BD04A1C0262026809785160C18C491E50
:101BA0000904090CC1840ED017E009880268C1F34A
:101BB0000801516001690029016A02D0491C0162D3
:101BC000ECE7891CFBE70168CA6822F08002CA6062
:101BD0000068C16841F04001C1600020704700000A
:101BE0000148FFF79FBC000090000020FEE70907B6
:101BF000090E002804DB00F1E02080F80014704793
:101C000000F00F0000F1E02080F8141D7047000084
:101C1000004870471C00002002E008C8121F08C1DD
:101C2000002AFAD170477047002001E001C1121F5D
:101C3000002AFBD17047000008B5FEF733FFFFF71D
:101C400021FE1C48816941F004018161806900F036
:101C500004000090FFF7C8FD1848174900240160F0
:101C60004FF4E131C0E901140C21C460C0E9044122
:101C70008461C461FFF7DEFCFFF7D6FD0122104945
:101C80000E48FFF749FD00F01DF80D4D4EF6602699
:101C90006D1E28780028FCD008484038FFF7F2FA7B
:101CA0003046FEF7EFFD05484038FFF7FCFA2C7090
:101CB000EFE70000001002400038014090000020D3
:101CC00001000020064942F210728868B2FBF0F071
:101CD000401E80B2488003490A68D062C8607047DD
:101CE0000000002050000020000000000000000064
:101CF00001020304060708090000000001020304B2
:101D0000004040404040404040404141414141400E
:101D100040404040404040404040404040404040C3
:101D20004005020202020202020202020202020252
:101D30000220202020202020202020020202020257
:101D400002029090909090901010101010101010AF
:101D500010101010101010101010101002020202BB
:101D600002028888888888880808080808080808FF
:101D700008080808080808080808080802020202FB
:101D800040000000011D0008A81D00080000002000
:101D900020000000181C0008C81D000820000020BA
:101DA000B0040000281C0008000000000000000033
:101DB00019000000010000001000000000000000F9
:081DC0000024F4000000000003
:04000005080000ED02
:00000001FF
